:100000000C942A000C943C000C943C000C943C0092
:100010000C943C000C943C000C943C000C943C0070
:100020000C943C000C943C000C943C000C943C0060
:100030000C943C000C943C000C943C000C943C0050
:100040000C943C000C943C000C943C000C943C0040
:100050000C943C0011241FBECFE5D8E0DEBFCDBF1D
:1000600020E0A0E6B0E001C01D92A236B207E1F7A1
:100070000E943E000C9413010C94000087B380642E
:1000800087BB81B38FEF81BB80916000909161004D
:10009000892BB1F488B3806488BB2AEA34ED4CE143
:1000A00051E02150304040405040D9F7000088B323
:1000B0008F7B88BB81E090E090936100809360002B
:1000C00080916000909161000197F1F680E982BB18
:1000D0006FEF91EE24E0615090402040E1F700C0C6
:1000E000000090E892BB3FEF41EE54E031504040B9
:1000F0005040E1F700C0000090EC92BB6FEF21EEA2
:1001000034E0615020403040E1F700C0000020E4BE
:1001100022BB4FEF51EE64E0415050406040E1F7A8
:1001200000C0000020E622BB3FEF41EE54E031501A
:1001300040405040E1F700C0000030E232BB6FEFBA
:1001400031EE44E0615030404040E1F700C0000033
:1001500030E332BB5FEF61EE44E05150604040401D
:10016000E1F700C0000040E142BB5FEF61EE44E018
:10017000515060404040E1F700C0000082BB5FEF9B
:1001800061EE44E0515060404040E1F700C00000A3
:100190005FEF63ED40E3515060404040E1F700C045
:1001A000000082BB5FEF61EE44E051506040404090
:1001B000E1F700C0000032BB5FEF61EE34E0515068
:1001C00060403040E1F700C0000022BB4FEF51EE2D
:1001D00064E0415050406040E1F700C0000092BB35
:1001E0009FEF21EE34E0915020403040E1F700C015
:1001F000000082BB4FEF51EE64E041505040604040
:10020000E1F700C000008FEF93ED20E381509040B4
:100210002040E1F700C0000082E090E09093610090
:0A0220008093600031CFF894FFCF07
:00000001FF
